{
  "_format": "hh-sol-artifact-1",
  "contractName": "Spotify",
  "sourceName": "contracts/Spotify.sol",
  "abi": [
    {
      "inputs": [],
      "name": "getMusic",
      "outputs": [
        {
          "components": [
            {
              "internalType": "string",
              "name": "title",
              "type": "string"
            },
            {
              "internalType": "string",
              "name": "url",
              "type": "string"
            }
          ],
          "internalType": "struct Spotify.MusicFile[]",
          "name": "",
          "type": "tuple[]"
        }
      ],
      "stateMutability": "view",
      "type": "function"
    },
    {
      "inputs": [
        {
          "internalType": "string",
          "name": "title",
          "type": "string"
        },
        {
          "internalType": "string",
          "name": "url",
          "type": "string"
        }
      ],
      "name": "updateList",
      "outputs": [
        {
          "components": [
            {
              "internalType": "string",
              "name": "title",
              "type": "string"
            },
            {
              "internalType": "string",
              "name": "url",
              "type": "string"
            }
          ],
          "internalType": "struct Spotify.MusicFile[]",
          "name": "",
          "type": "tuple[]"
        }
      ],
      "stateMutability": "nonpayable",
      "type": "function"
    }
  ],
  "bytecode": "0x608060405234801561001057600080fd5b50610c08806100206000396000f3fe608060405234801561001057600080fd5b50600436106100365760003560e01c80636e1d94801461003b578063c1765d9314610059575b600080fd5b610043610089565b604051610050919061061e565b60405180910390f35b610073600480360381019061006e9190610789565b61020c565b604051610080919061061e565b60405180910390f35b60606000805480602002602001604051908101604052809291908181526020016000905b8282101561020357838290600052602060002090600202016040518060400160405290816000820180546100e090610830565b80601f016020809104026020016040519081016040528092919081815260200182805461010c90610830565b80156101595780601f1061012e57610100808354040283529160200191610159565b820191906000526020600020905b81548152906001019060200180831161013c57829003601f168201915b5050505050815260200160018201805461017290610830565b80601f016020809104026020016040519081016040528092919081815260200182805461019e90610830565b80156101eb5780601f106101c0576101008083540402835291602001916101eb565b820191906000526020600020905b8154815290600101906020018083116101ce57829003601f168201915b505050505081525050815260200190600101906100ad565b50505050905090565b60606000835111610252576040517f08c379a0000000000000000000000000000000000000000000000000000000008152600401610249906108be565b60405180910390fd5b6000825111610296576040517f08c379a000000000000000000000000000000000000000000000000000000000815260040161028d9061092a565b60405180910390fd5b6000604051806040016040528085815260200184815250908060018154018082558091505060019003906000526020600020906002020160009091909190915060008201518160000190816102eb9190610b00565b5060208201518160010190816103019190610b00565b5050506000805480602002602001604051908101604052809291908181526020016000905b8282101561047c578382906000526020600020906002020160405180604001604052908160008201805461035990610830565b80601f016020809104026020016040519081016040528092919081815260200182805461038590610830565b80156103d25780601f106103a7576101008083540402835291602001916103d2565b820191906000526020600020905b8154815290600101906020018083116103b557829003601f168201915b505050505081526020016001820180546103eb90610830565b80601f016020809104026020016040519081016040528092919081815260200182805461041790610830565b80156104645780601f1061043957610100808354040283529160200191610464565b820191906000526020600020905b81548152906001019060200180831161044757829003601f168201915b50505050508152505081526020019060010190610326565b50505050905092915050565b600081519050919050565b600082825260208201905092915050565b6000819050602082019050919050565b600081519050919050565b600082825260208201905092915050565b60005b838110156104ee5780820151818401526020810190506104d3565b60008484015250505050565b6000601f19601f8301169050919050565b6000610516826104b4565b61052081856104bf565b93506105308185602086016104d0565b610539816104fa565b840191505092915050565b60006040830160008301518482036000860152610561828261050b565b9150506020830151848203602086015261057b828261050b565b9150508091505092915050565b60006105948383610544565b905092915050565b6000602082019050919050565b60006105b482610488565b6105be8185610493565b9350836020820285016105d0856104a4565b8060005b8581101561060c57848403895281516105ed8582610588565b94506105f88361059c565b925060208a019950506001810190506105d4565b50829750879550505050505092915050565b6000602082019050818103600083015261063881846105a9565b905092915050565b6000604051905090565b600080fd5b600080fd5b600080fd5b600080fd5b7f4e487b7100000000000000000000000000000000000000000000000000000000600052604160045260246000fd5b610696826104fa565b810181811067ffffffffffffffff821117156106b5576106b461065e565b5b80604052505050565b60006106c8610640565b90506106d4828261068d565b919050565b600067ffffffffffffffff8211156106f4576106f361065e565b5b6106fd826104fa565b9050602081019050919050565b82818337600083830152505050565b600061072c610727846106d9565b6106be565b90508281526020810184848401111561074857610747610659565b5b61075384828561070a565b509392505050565b600082601f8301126107705761076f610654565b5b8135610780848260208601610719565b91505092915050565b600080604083850312156107a05761079f61064a565b5b600083013567ffffffffffffffff8111156107be576107bd61064f565b5b6107ca8582860161075b565b925050602083013567ffffffffffffffff8111156107eb576107ea61064f565b5b6107f78582860161075b565b9150509250929050565b7f4e487b7100000000000000000000000000000000000000000000000000000000600052602260045260246000fd5b6000600282049050600182168061084857607f821691505b60208210810361085b5761085a610801565b5b50919050565b600082825260208201905092915050565b7f496e76616c6964205469746c6500000000000000000000000000000000000000600082015250565b60006108a8600d83610861565b91506108b382610872565b602082019050919050565b600060208201905081810360008301526108d78161089b565b9050919050565b7f496e76616c69642055726c000000000000000000000000000000000000000000600082015250565b6000610914600b83610861565b915061091f826108de565b602082019050919050565b6000602082019050818103600083015261094381610907565b9050919050565b60008190508160005260206000209050919050565b60006020601f8301049050919050565b600082821b905092915050565b6000600883026109ac7fffffffffffffffffffffffffffffffffffffffffffffffffffffffffffffffff8261096f565b6109b6868361096f565b95508019841693508086168417925050509392505050565b6000819050919050565b6000819050919050565b60006109fd6109f86109f3846109ce565b6109d8565b6109ce565b9050919050565b6000819050919050565b610a17836109e2565b610a2b610a2382610a04565b84845461097c565b825550505050565b600090565b610a40610a33565b610a4b818484610a0e565b505050565b5b81811015610a6f57610a64600082610a38565b600181019050610a51565b5050565b601f821115610ab457610a858161094a565b610a8e8461095f565b81016020851015610a9d578190505b610ab1610aa98561095f565b830182610a50565b50505b505050565b600082821c905092915050565b6000610ad760001984600802610ab9565b1980831691505092915050565b6000610af08383610ac6565b9150826002028217905092915050565b610b09826104b4565b67ffffffffffffffff811115610b2257610b2161065e565b5b610b2c8254610830565b610b37828285610a73565b600060209050601f831160018114610b6a5760008415610b58578287015190505b610b628582610ae4565b865550610bca565b601f198416610b788661094a565b60005b82811015610ba057848901518255600182019150602085019450602081019050610b7b565b86831015610bbd5784890151610bb9601f891682610ac6565b8355505b6001600288020188555050505b50505050505056fea26469706673582212202b4a7c91024a60565fcde2544d4803e153152c19658e62265ad274ac6bff6fde64736f6c63430008120033",
  "linkReferences": {},
  "deployedLinkReferences": {}
}